:10029700EF1FAC0670011E4C600A7D027CEFDCFE8E
:0402A700DDFC80EC0E
:0102AB002230
:09030F00D2A0D2A1C2A0C2A12219
:07031800C2A0D2A1D2A02275
:0201DC00AD076D
:1001DE00E4FB7E007480A803088006CEA2E713CE4F
:1001EE0013D8F8FFEDF582EF558224FF92A0D2A12D
:0601FE00C2A10BBB08DCEE
:0102040022D7
:10022800E4FFD2A0FED2A130A00DA80674800880F9
:0D02380002C313D8FC4207C2A10EBE08E8A5
:010245002296
:0A02E700EF24FF92A0D2A1C2A122D1
:0B02CF00D2A0D2A1A2A0E433FFC2A184
:0102DA002201
:0602C000C2A58F80D2A749
:0802C6007F027EEFDEFEDFFC8B
:0102CE00220D
:0A02F100C2A61202C0C2A70202C694
:10024600CFCDCFCECCCE1200427C007D0A1200422A
:04025600ED2430FF64
:0A025A00D2A61202C0C2A70202C61B
:10028100AE07BE0104ED148006BE0209ED243F4411
:0602910080FF1202F122C1
:1002AC007F381202F17F0C1202F17F061202F17FED
:0402BC00010202F148
:0A02FB00AC03120281AF0402025AA4
:060205008B098A0A890B37
:10020B00120281E4FDAB09AA0AA90B8D827583004A
:0C021B00120003FF600612025A0D80E979
:0102270022B4
:0C01A9007F0AEA24FFFDE434FFFC7E0026
:0801B5008E0E8F0F8C108D11CE
:1001BD007F017E00E4FBEBC39511E5106480F874BC
:0E01CD008098500AAC0EAD0F1200300B80E887
:0101DB002201
:040264008A0B8B0C6A
:10026800120281AA0DEAD39400400D1201A9AC0B29
:08027800AD0C1202461A80EDE4
:01028000225B
:1000FE00120281C3EA64809480400B7F2B12025A55
:10010E008A178B18800E7F2D12025AC3E49BF518A6
:10011E00E49AF517AA16EAD39400400D1201A9AC81
:09012E0017AD181202461A80ED0B
:0101370022A5
:040138008A0B8B0C97
:10013C00120281AA0DEAD3940040297F101201AB60
:10014C00AC0BAD0CCFCDCFCECCCE120042EF540FBA
:10015C00FEC3940AEE5004243080022437FF1202AE
:04016C005A1A80D1CA
:01017000226C
:040171008A1B8B1C3E
:10017500120281AA1DEAD394004028EA24FFFDE477
:1001850034FFFC7F027E001201B5AC1BAD1CCFCD48
:10019500CFCECCCE120042EF54012430FF12025ACA
:0301A5001A80D2EB
:0101A8002234
:0A030500305800436F756E743A0023
:100097001202ACE4F50812030FAF081201DC1202DA
:1000A700CFEF70257FD07E07120297051E7BFF7A60
:1000B7000379057D017F01120205E508FB7A0075CA
:1000C7000D027D037F01120138E508B4FE1C7BFF9A
:1000D7007A0379087D017F02120205E51EFB7A008B
:1000E700750D037D077F021202641203180508E5E8
:0600F70008C394FF40A0C5
:0100FD0022E0
:05031F0012009780FEB2
:030000000202DB1E
:0C02DB00787FE4F6D8FD75811E02031F39
:10000300BB010CE58229F582E5833AF583E02250B2
:1000130006E92582F8E622BBFE06E92582F8E222FC
:0D002300E58229F582E5833AF583E4932216
:10003000EF8DF0A4A8F0CF8CF0A428CE8DF0A42EE4
:02004000FE229E
:10004200BC000BBE0029EF8DF084FFADF022E4CCA2
:10005200F875F008EF2FFFEE33FEEC33FCEE9DEC6B
:10006200984005FCEE9DFE0FD5F0E9E4CEFD22EDB1
:10007200F8F5F0EE8420D21CFEADF075F008EF2FFB
:10008200FFED33FD4007985006D5F0F222C398FDEC
:050092000FD5F0EA2289
:00000001FF
